:100000000C94B6000C94D3000C94D3000C94D30041
:100010000C94D3000C94D3000C94D3000C94D30014
:100020000C94D3000C94D3000C94D3000C94D30004
:100030000C94D3000C94D3000C94D3000C94D300F4
:100040000C94D3000C94D3000C94D3000C94D300E4
:100050000C94D3000C94D3000C94D3000C94D300D4
:100060000C94D3000C94D3000C94D3000C94D300C4
:100070000C94D3000C94D3000C94D3000C94D300B4
:100080000C94D3000C94D3000C94D3000C94D300A4
:100090000C94D3000C94D3000C94D3000C94D30094
:1000A0000C94D3000C94D3000C94D3000C94D30084
:1000B0000C94D3000C94D3000C94D3000C94D30074
:1000C0000C94D3000C94D3000C94D3000C94D30064
:1000D0000C94D3000C94D3000C94D3000C94D30054
:1000E0000C94D3000C94D3000C94D3000C94D30044
:1000F0000C94D3000C94D3000C94D3000C94D30034
:100100000C94D3000C94D3000C94D3000C94D30023
:100110000C94D3000C94D3000C94D3000C94D30013
:100120000C94D3000C94D3000C94D3000C94D30003
:100130000C94D3000C94D3000C94D3000C94D300F3
:100140000C94D3000C94D3000C94D3000C94D300E3
:100150000C94D3000C94D3000C94D3000C94D300D3
:100160000C9472020C94D3000C94D30011241FBE83
:10017000CFEFCDBFD7E2DEBF10E2A0E0B0E2E4EB0C
:10018000FBE002C005900D92A437B107D9F722E237
:10019000A4E7B0E201C01D92AE3CB207E1F70E94B5
:1001A00026010C94D8050C940000E0E5F0E09BECEF
:1001B000928398E09083918193FFFDCF98ED94BF57
:1001C000E0E4F0E023E0208394BF1182E0E5F0E07A
:1001D00090819F7E9083806C858380E18083818184
:1001E00084FFFDCF88ED84BF84E0809340000895B4
:1001F000E0E0F2E081E0808396E0948390E29283F5
:1002000080A380E181A312A20895E0E0F2E080A142
:10021000806880A386818823E9F380911002909101
:1002200011020895789483E08093A2000895E0E09D
:10023000F8E086E3818388EE93E086A397A310A677
:1002400011A612A613A681E08083089582E00E9481
:10025000D5000E94A8020E9412010E94F8000E948C
:10026000170183E08093200680E880930006E0E495
:10027000F6E087E0808384E08583C0E2D6E000E09A
:1002800018E00F2EF6E78F2EF0E29F2EF02D0F2EA6
:10029000FAEDEF2EF0E2FF2EF02D0F2EF9E14F2EAA
:1002A000F0E25F2EF02D0F2EFEED2F2EF3E03F2E0D
:1002B000F02D0F2EF6E0CF2EF0E2DF2EF02D0F2ED8
:1002C000F0EAAF2EFFE0BF2EF02D0F2EF8EC6F2ED0
:1002D000712CF02D80917420813069F58E8380E03F
:1002E0000E9405012091022030910320A901475E60
:1002F0005F4F4817590750F48091002090910120DA
:10030000F80182A793A710A611A617C02951310999
:100310008217930750F48091002090910120F801FA
:1003200080A791A712A613A608C0F80110A611A6CF
:1003300012A613A602C081E08D83809175208130C2
:1003400009F0CDC0F4018081843299F58181843235
:1003500081F18281843269F187E790E20E94CE02C6
:100360008093022090930320883C910528F46092AA
:1003700002207092032007C0813A9F4020F0A09293
:100380000220B0920320809103208F93809102205D
:100390008F93DF92CF92FF92EF920E94F402C701F7
:1003A0000E94BD020F900F900F900F900F900F9032
:1003B00094C0F40180818432A9F58181843291F561
:1003C0008281843279F188E790E20E94CE028093A4
:1003D0000020909301208436910538F484E690E063
:1003E000809300209093012007C08F3D934020F020
:1003F0002092002030920120809101208F938091E3
:1004000000208F935F924F92FF92EF920E94F4022E
:10041000C7010E94BD020F900F900F900F900F9098
:100420000F905BC0F4018081843209F056C0818155
:10043000843209F052C08281843209F04EC0838137
:100440008134B9F480E00E9405019F938F938CE280
:1004500090E29F938F93FF92EF920E94F402C70164
:100460000E94BD020F900F900F900F900F900F9071
:1004700034C0F40183818534B9F481E08093742021
:100480001F928F9382E490E29F938F93FF92EF925B
:100490000E94F402C7010E94BD020F900F900F90BE
:1004A0000F900F900F9019C0F40183818434A9F448
:1004B000109274201F921F928AE590E29F938F936F
:1004C000FF92EF920E94F402C7010E94BD020F90BA
:1004D0000F900F900F900F900F901092752082E068
:1004E0008D83F8CE1F920F920FB60F9211248F9327
:1004F0009F93EF93FF938091A00992E0909326063B
:100500008A3079F4E0910420F0910520808386E719
:1005100090E2809304209093052081E080937520E1
:100520000EC0E0910420F09105208083809104208A
:100530009091052001968093042090930520FF91CF
:10054000EF919F918F910F900FBE0F901F90189574
:10055000E0EAF9E017828FEC868380E2838383E010
:10056000858388E1848388E0809361060895FB0198
:10057000918195FFFDCF80830895CF93DF93EC01A8
:100580008881882341F0219660EA79E00E94B702D1
:1005900089918111F9CFDF91CF910895FC018827CE
:1005A0009927E89421912032E9F3293010F02E3078
:1005B000C8F32B3241F02D3239F4689404C00E9404
:1005C000EC02820F911D219120532A30C0F31EF4BA
:1005D000909581959F4F08957AE0979F902D879FE2
:1005E000802D910D11240895AEE0B0E0EAEFF2E025
:1005F0000C94B5050D891E8986E08C8309831A83C6
:100600008FEF9FE78D839E83AE01475E5F4F6F89BB
:10061000788DCE0101960E941603EF81F885E00FD8
:10062000F11F10822E96E4E00C94CE05ABE0B0E012
:10063000ECE1F3E00C94A7056C017B018A01FC015D
:1006400016821782838181FFCCC1CE0101963C01C5
:10065000F6019381F70193FD859193FF81917F01CD
:10066000882309F4BAC1853239F493FD859193FF4B
:1006700081917F01853229F4B60190E00E940D0539
:10068000E7CF912C212C312CFFE1F315D8F08B32E0
:1006900079F038F4803279F08332A1F4232D20618F
:1006A0001DC08D3261F0803369F4232D216016C0A6
:1006B000832D8260382EE32DE4603E2E2AC0F32D78
:1006C000F8601DC037FC2DC020ED280F2A3040F007
:1006D0008E32B9F436FC81C1232D2064322E19C02C
:1006E00036FE06C08AE0989E200D1124922E11C07D
:1006F000EAE02E9E200D1124222EF32DF0623F2ED3
:1007000008C08C3621F4832D8068382E02C08836CC
:1007100041F4F70193FD859193FF81917F01811150
:10072000B3CF982F9F7D9554933028F40C5F1F4FC3
:100730009FE399830DC0833631F0833771F08335A1
:1007400009F059C021C0F801808189830E5F1F4FD5
:1007500088248394912C530113C02801F2E04F0E9A
:10076000511CF801A080B18036FE03C0692D70E0F5
:1007700002C06FEF7FEFC5010E9402054C018201AC
:10078000F32DFF773F2E16C0280122E0420E511CA8
:10079000F801A080B18036FE03C0692D70E002C070
:1007A0006FEF7FEFC5010E94F7044C01F32DF06855
:1007B0003F2E820133FC1BC0822D90E088169906E3
:1007C000B0F4B60180E290E00E940D052A94F4CFC7
:1007D000F50137FC859137FE81915F01B60190E00C
:1007E0000E940D0521102A9421E0821A910881149B
:1007F000910471F7E8C0843611F0893641F5F801AB
:1008000037FE07C060817181828193810C5F1F4F29
:1008100008C060817181072E000C880B990B0E5F58
:100820001F4FF32DFF763F2E97FF09C090958095BF
:10083000709561957F4F8F4F9F4FF0683F2E2AE054
:1008400030E0A3010E944905882E861845C08537EF
:1008500031F4232D2F7EB22E2AE030E025C0932DD7
:10086000997FB92E8F36C1F018F4883579F0B5C06C
:10087000803719F0883721F0B0C0E92FE061BE2E33
:10088000B4FE0DC0FB2DF460BF2E09C034FE0AC0BB
:10089000292F2660B22E06C028E030E005C020E1F6
:1008A00030E002C020E132E0F801B7FE07C060810D
:1008B0007181828193810C5F1F4F06C060817181BD
:1008C00080E090E00E5F1F4FA3010E944905882E33
:1008D0008618FB2DFF773F2E36FE0DC0232D2E7F71
:1008E000A22E891458F434FE0BC032FC09C0832DAB
:1008F0008E7EA82E05C0B82CA32C03C0B82C01C036
:10090000B92CA4FE0FC0FE01E80DF11D80818033DB
:1009100021F49A2D997EA92E09C0A2FE06C0B39497
:10092000B39404C08A2D867809F0B394A3FC11C057
:10093000A0FE06C0B21488F4280C922C9B180EC09E
:10094000B21460F4B60180E290E00E940D05B39409
:10095000F7CFB21418F42B1802C0982C212CA4FE47
:1009600010C0B60180E390E00E940D05A2FE17C002
:10097000A1FC03C088E790E002C088E590E0B601E2
:100980000CC08A2D867859F0A1FE02C08BE201C00E
:1009900080E2A7FC8DE2B60190E00E940D0589146B
:1009A00038F4B60180E390E00E940D059A94F7CFE9
:1009B0008A94F301E80DF11D8081B60190E00E9458
:1009C0000D058110F5CF222009F442CEB60180E258
:1009D00090E00E940D052A94F6CFF601868197815A
:1009E00002C08FEF9FEF2B96E2E10C94C005FC0153
:1009F0000590615070400110D8F7809590958E0F4A
:100A00009F1F0895FC016150704001900110D8F7BC
:100A1000809590958E0F9F1F08950F931F93CF93EE
:100A2000DF93FB01238121FD03C08FEF9FEF2CC0DB
:100A300022FF16C046815781248135814217530712
:100A400044F4A081B1819D012F5F3F4F208331830A
:100A50008C93268137812F5F3F4F2683378314C0C5
:100A60008B01EC01FB010084F185E02D0995892BB8
:100A7000E1F6D80116968D919C91179701961696DE
:100A80008D939C931797CE01DF91CF911F910F917A
:100A90000895FA01AA27283051F1203181F1E89414
:100AA0006F936E7F6E5F7F4F8F4F9F4FAF4FB1E061
:100AB0003ED0B4E03CD0670F781F891F9A1FA11D5C
:100AC000680F791F8A1F911DA11D6A0F711D811D5D
:100AD000911DA11D20D009F468943F912AE0269F22
:100AE00011243019305D3193DEF6CF010895462F81
:100AF0004770405D4193B3E00FD0C9F7F6CF462F62
:100B00004F70405D4A3318F0495D31FD40524193CA
:100B100002D0A9F7EACFB4E0A69597958795779587
:100B20006795BA95C9F700976105710508959B010E
:100B3000AC010A2E06945795479537952795BA9597
:100B4000C9F7620F731F841F951FA01D08952F9270
:100B50003F924F925F926F927F928F929F92AF924D
:100B6000BF92CF92DF92EF92FF920F931F93CF939A
:100B7000DF93CDB7DEB7CA1BDB0BCDBFDEBF099459
:100B80002A88398848885F846E847D848C849B841D
:100B9000AA84B984C884DF80EE80FD800C811B812B
:100BA000AA81B981CE0FD11DCDBFDEBFED01089561
:040BB000F894FFCFE7
:100BB4008403C80076202325642D5B4F4B5D2D41B3
:100BC4004E472056414C0D0A002325642D5B4F4BA4
:100BD4005D2D50574D2056414C0D0A002325642DA0
:100BE4005B4F4B5D2D4355525220414E474C450DB2
:100BF4000A002325642D5B4F4B5D2D4D4F56452038
:100C0400454E41424C45440D0A002325642D5B4F5B
:100C14004B5D2D4D4F56452044495341424C45446C
:040C24000D0A0000B5
:00000001FF
